:020000040800F2
:1000000058090020592E0008352E0008372E000808
:10001000392E00083B2E00083D2E0008000000008D
:100020000000000000000000000000003F2E00085B
:10003000412E000800000000432E0008452E000855
:10004000752E0008792E00087D2E0008812E0008EC
:10005000852E0008892E00088D2E0008912E00089C
:10006000952E0008992E00089D2E0008A12E00084C
:10007000A52E0008A92E0008AD2E0008B12E0008FC
:10008000B52E0008B92E0008BD2E0008C12E0008AC
:10009000C52E0008C92E0008CD2E0008D12E00085C
:1000A000D52E0008D92E0008DD2E0008E12E00080C
:1000B000E52E0008E92E0008ED2E0008F12E0008BC
:1000C000F52E0008F92E0008FD2E0008012F00086B
:1000D000052F0008092F00080D2F0008112F000818
:1000E000152F0008192F00081D2F0008212F0008C8
:1000F000252F0008292F00082D2F0008312F000878
:10010000352F0008392F00083D2F0008412F000827
:10011000452F0008492F00084D2F0008512F0008D7
:10012000552F0008592F00085D2F0008612F000887
:1001300003E011F8013B00F8013B13465A1E002B67
:10014000F7D17047130003D00A46194601F0ACB846
:100150007047F0B500230026DFF8E0490C2500F5D4
:10016000007205FB06F02718386890B1D2F800E05D
:10017000704502BF7868D2F808E0704502BF388940
:10018000D788B84206D1022E0AD193B9022905D1E7
:100190000FE00123761C022EE3D3F4E71220F0BD1A
:1001A00029B96E43A0194089B0F5807F01D1102094
:1001B000F0BD0020F0BDF0B500F5007300221C6812
:1001C000DFF878590C2606FB02F02F58A74201BF32
:1001D0002F1D57F800E09F68BE4505D105F10807BF
:1001E000385ADF88B84202D0521C012AEBD9022AC1
:1001F00011D12868002200281EBF0122E8680028CB
:100200000ED106FB02F0284404609C684460002480
:10021000DB88038144815643AB19588929B108B161
:100220000020F0BD4FF4807000E0401C5881501C4D
:10023000F0BD10B5401E022815D20C214843DFF84E
:10024000FC180A185389B3F5807F01D01C0002D135
:100250000023538103E05B1E53819BB20BB9002244
:100260000A50002010BD022010BD30B50021DFF87B
:10027000CC2800250C234B43D458844208BFD550CA
:10028000491C0129F6D930BD2DE9F843814609F210
:1002900001260024F078C0B109F50677D7F814805C
:1002A00000F014F808B101240FE0F070B968386864
:1002B000A8EB0101814208D2B57804E03868804497
:1002C00000F004F86D1E012DF8D8DBE03078012332
:1002D0004246494601F014B870B504460D46D4F8BC
:1002E0002C020026854211D02046FFF7CDFF0600E4
:1002F0000CD194F8010201232A46214600F0FAFFAE
:1003000010B14FF0FF350126C4F82C52304670BDB5
:1003100070B50446FFF7B8FF05004BD104F5F2763F
:10032000307F032804BF94F8050201283BD14FF425
:10033000007200212046FFF705FF5520B076AA2164
:10034000F1765220207060706121A1704120E07030
:10035000722131707170B0706121F17004F5037019
:1003600001234168317142681204120E72714168B2
:10037000090CB1714168090EF171026832720168AD
:100380000904090E71720268120CB2720168090E3A
:10039000F17221460269521C0262707F00F0B0FFC8
:1003A000002084F805020022707F002100F0B6FFD3
:1003B00000B10125284670BD00F50572891E13683D
:1003C0009B1E994201D30020704790F80232506979
:1003D00003FB0101084670472DE9F8430D46022D45
:1003E00080464ED308F500767069854249D231784F
:1003F00001294FF0FF3404D043D303292BD01CD361
:100400003FE0316A05EB550700F0B0F8002839D11C
:10041000C7F30800316A18F800907F1C00F0A6F8B6
:1004200080BBC7F30807E90718F8070049EA00246A
:1004300054BFC4F30B04240924E0316A01EB1521F5
:1004400000F092F8F0B92D0608EBD5504178047809
:1004500044EA012416E0316A01EBD51100F084F87A
:1004600080B96D0608EBD5508478C178240444EA3D
:1004700001644178007844EA0124044324F0704484
:1004800000E001242046BDE8F2832DE9F0410C464E
:10049000022C8046164664D308F5007568698442CC
:1004A0005FD22978012904D05BD303293FD02FD311
:1004B00057E0296A04EB540700F058F8010051D1C5
:1004C000C7F308007F1C404414F001041DBF0178ED
:1004D00001F00F0141EA0611314601700120287137
:1004E0004046296A01EB5721FFF7F6FE010039D19A
:1004F000C7F3080708EB07010CB1360906E00A78D4
:10050000360A02F0F00206F00F0616430E7025E0E0
:10051000296A01EB142100F027F8010022D12406FA
:1005200008EBD4510E703604360E4E7016E0296A70
:1005300001EBD41100F018F8010013D1640608EBA8
:10054000D451CA78120602F0704216430E7033047A
:100550001B0E320C360E4B708A70CE700121297141
:1005600000E00220BDE8F0814046B5E601EB5721EE
:100570004046B1E62DE9F0410E46012E804622D9D3
:1005800008F50475686886421DD20027314640464A
:10059000FFF722FF040019D0012C14D014F1010F31
:1005A00013D0002200F015F807000FD1286810F1D1
:1005B000010F03D0401C286000F05CF826466868F4
:1005C0008642E3D302E0022700E001273846BDE877
:1005D000F0813146404658E72DE9F04180460C0055
:1005E00008F5037706D13D6815B1B86885420ED38A
:1005F00001250CE0FFF7F0FE012898BF012037D954
:1006000010F1010F34D0B968884231D325462E4607
:10061000B868761C864202D30226012D0BD93146DA
:100620004046FFF7D9FE40B110F1010F18BF012875
:100630001ED0AE42ECD100201AE06FF07042FFF7FE
:10064000C8FF78B924B132462146FFF7C3FF48B945
:100650003E60786810F1010F09D0401E786000F00C
:1006600009F804E001280CBF4FF0FF3601263046A0
:10067000BDE8F08198F8050240F0010088F8050215
:10068000704700F50070490A426A006890F802322B
:10069000121DB1FBF3F003E0884206D3401A083282
:1006A00011680029F8D10020704751680818704778
:1006B000F8B500F500760D46B468F580012C36D00B
:1006C000306800F5007041698C4230D24CB9017835
:1006D000032901D1446A24B901898D4227D2406A95
:1006E00022E0877808E0012C21D93068D0F8141274
:1006F0008C421CD2A5EB07153068B5EB071F2146CD
:1007000010D3FFF769FE044614F1010FEBD101206D
:10071000F2BD00EB151030616D01306805F4F07525
:1007200041197AE0FFF748FE0028F460F1D1022079
:10073000F2BDF8B500F500760C46F7887F1C38044A
:100740001CBF3069002820D017F00F0F5FD1401C6C
:1007500030613068F16800F2022219B9D08887420E
:1007600055D312E01278521E12EA171F4FD1FFF72D
:1007700033FE0546012D13D915F1010F3BD030682A
:10078000D0F814128D423DD30CB90420F2BDF168AB
:10079000FFF722FF050001D10720F2BD012D01D195
:1007A0000220F2BD15F1010F25D03068FFF76CFD76
:1007B00008BB30684FF4007200F086F830682946B4
:1007C000FFF7FAFD3168C1F82C02002406E030681A
:1007D000D0F82C12491CC0F82C12641C306800F2AE
:1007E00002210A78944208D2012088703068FFF70D
:1007F0004BFD0028EBD00120F2BDD0F82C120C1BD1
:10080000C0F82C42F560294600F0CFFC3061F7803B
:100810007F01306807F4F077C11971610020F2BDE3
:10082000024692F80022CB7E887E032A40EA03200B
:1008300005D14A7D097D41EA022140EA0140704725
:1008400081760A04090C0175120E090AC2764175F7
:100850007047002128466CE7F8B505460021FFF7F0
:1008600027FF0646320005F5007413D1002700F07B
:1008700026F806000ED160690078E5281CBF002824
:10088000002702D17F1C012F07D00121FFF7E2FFD3
:100890000600ECD0042E08BF072630000DD100F072
:1008A0000EF8060009D100F00DF8A16960690B226D
:1008B000FFF73EFC216800F0E9FC3046F2BD2169FB
:1008C000206809E5606920220021FFF73BBC2DE983
:1008D000F8450D462C6800E0641C21782F2918BFCC
:1008E0005C29F9D0D0F818620B2220213046FFF79E
:1008F00029FC002100238A4608220FF2D008DFF8E5
:10090000F4C604E0082A3CD108210B22034614F85F
:100910000AE09800BEF1200F0AF1010AC0B205DD1D
:10092000BEF12F0F18BFBEF15C0F07D154442C60ED
:10093000BEF1200FD4BF0424002421E0BEF12E0F0D
:10094000E0D091421DD2BEF1800F05DB0CEB0E0012
:1009500043F0030310F880EC4746387858B37045ED
:1009600018BF7F1CF9D126E0AEF161001A283CBF08
:1009700043F00103AEF1200E06F801E0491CC6E782
:1009800009B9062015E03178E52904BF0525357041
:10099000082A08BF034603F00300012808BF44F0FB
:1009A000100403F00C03042B08BF44F00804F47295
:1009B0000020BDE8F2850028E3D1AEF141001A28FD
:1009C000D2D243F00203D7E700000000222A2B2CEA
:1009D0003A3B3C3D3E3F5B5D7C7F0000F2B5044608
:1009E00008782F2812BF5C28491C009104F5007577
:1009F0000020A86000990A78202A11D20021204600
:100A0000FFF756FE002302466B6140E040073ED4EC
:100A10006969C87AC20639D52868FFF701FFA8605E
:100A200069462046FFF753FF020030D100212046DF
:100A3000FFF73EFE02001ED129692868FFF74CFC33
:100A4000020018D16B691878F0B1D87A01070CD47C
:100A5000AF690B2600213046461E28B113F8010B62
:100A600017F8011B411AF6D029B100212046FFF7E3
:100A700060FE0200E0D0A869C07A1100C6D0042A46
:100A800005D1400703D401E00422F4E70522104613
:100A9000F2BD03464FF0FF301A68002A00D17047BC
:100AA00010B514462178212906D33A2918BF641CB1
:100AB000F8D101E0002010BD3A29FBD112F8011B4A
:100AC00030390A29F7D2A24208BF0029F3D1621CAB
:100AD00000201A6010BD38B5044604F5FF750022E9
:100AE000AA714FF0FF33C4F82C32FFF7F5FB08B1C1
:100AF000032032BD6878297841EA00214AF6552260
:100B0000914201D0022032BD04F13601DFF8E82421
:100B10004B7888781B0243EA0043087803439342EA
:100B200008D04B7F887F1B0243EA0043087F0343C2
:100B3000934201D1002032BD012032BD2C0500209E
:100B40002DE9F84F074684B0002038601646084665
:100B5000FFF79FFF0446002C48BF0B2006D4DFF8A8
:100B60009CA40AEB840045680DB90C203EE13D6071
:100B700005F5F277387F48B1787F00F09FFBC10719
:100B800004D4002E01D040070DD42EE10020387788
:100B90007C77787F00F09BFBC10748BF032003D41C
:100BA0001EB1400701D50A2020E100212846FFF7A9
:100BB00092FF01284FF0000827D1002105EB011218
:100BC00002F5DF72107948B1907AD37A000440EAD6
:100BD0000360537A127A40EA032010434DF8210053
:100BE000491C0329EAD9C1465DF82980B8F1000FF4
:100BF00004D041462846FFF76EFF00E0022020B1F6
:100C000009F10109B9F1030FEED9032808BF01204A
:100C1000CAD0002801BF287BE97A41EA0021B1F55A
:100C2000007F18D1E97DA87D50EA012005F121035C
:100C300009D1587999791A79000440EA0160D97884
:100C400040EA0220084305F50374E060297CF97747
:100C5000012918BF022971D14843697BB97700295E
:100C600002466BD0481E014268D1A87C6E7C05F21A
:100C7000062946EA002C1CF00F0FA9F802C05DD12E
:100C8000287DEE7C56EA00260AD15E7898783604F4
:100C900046EA0066187846EA002695F820000643E2
:100CA00095F80FE0A87B50EA0E2047D002EB000E2B
:100CB0000EEB1C1E764541D3A6EB0E06B6FBF1F1FA
:100CC00000293BD0012640F6F67B594528BF022675
:100CD0004FF6F67B594528BF0326891CA160C4F84E
:100CE000108040446061C644032EC4F81CE00FD15C
:100CF000BCF1000F22D15A7B987B197B120442EA87
:100D00000062D87A42EA01220243A06880000EE025
:100D1000BCF1000F12D060691218A068022E0FBF3C
:100D2000400000EB400100F0010000EB5100A26127
:100D300000F2FF10E168B1EB502F01D20D2055E019
:100D40004FF0FF3060602060802085F80502032EA0
:100D500001BF187CD97B41EA002101293AD108F171
:100D600001012846FFF7B8FA002833D185F80502BB
:100D7000F97EB87E40EA01204AF65521884229D101
:100D8000A978E8786A789E4B00F044F9287800F05A
:100D90003DF999421ED1B978F8787A78994B00F0EC
:100DA00039F9387800F032F9994213D1B979F879E4
:100DB0007A7900F02FF9387900F028F96160BA7A71
:100DC000F97A387A120442EA0162797A42EA012217
:100DD000024322603E77BAF80000401CAAF80000E7
:100DE000A9F800002846FFF740FA002005B0BDE84A
:100DF000F08F80B500281EBF00F50071086800283C
:100E00000CD000F50072107840B1D08889888842F3
:100E100004D1507800F052FAC00701D5092002BD74
:100E2000002002BD73B582B0154600916846FFF7F9
:100E300030FE002848BF0B2020D4704901EB80060B
:100E400074682CB12046FFF710FA002084F80002E5
:100E5000029810B90021716009E00299002081F820
:100E60000002029A7260029808B1012D01D00020A0
:100E700004E0002203A902A8FFF762FE04B070BDDF
:100E80002DE9F343ADF50B7D08B90920ADE000F580
:100E900000770020386002F01F0808F0FE0200F022
:100EA000F1F90028064657D100F0F4F96C690646BE
:100EB00050B90CB9062607E018F0FE0118BF012151
:100EC00003A8FFF746F9064618F01C0F63D0002E62
:100ED00058D0042E0BD14C49086800281EBFC868A2
:100EE0000028122603D103A8FFF7B6FC06466C695A
:100EF00048F008087EBB5FEA087033D500F02AFA94
:100F0000A0730104090E020C000E6074E17300204E
:100F1000E07220776077A077E0772274214683988B
:100F2000FFF77EFC054600212046FFF789FC8399E8
:100F300000F0ACF98DB18398D0F82C922946FFF7D8
:100F400019FB064638B983986D1EC0F80C52494605
:100F5000FFF7C2F90646002E46D15FEA087048BF87
:100F600048F020088398D0F82C12F9613C6218F000
:100F7000FE0118BF012103A8FFF71DF9B862C0B92F
:100F8000022631E0E07A10F0110F10D15FEA4870CC
:100F9000B1D5082628E0002EDDD1E07AC10648BF91
:100FA000042621D45FEA8871D7D5C007D5D5072696
:100FB0001AE0002087F80680F8712146839D2846B4
:100FC000FFF72EFC3861A17FE07F627F00F022F8FE
:100FD000207F3D6000F01AF8F9600021B960B96126
:100FE0007962B5F80602B88030460DF50D7DBDE892
:100FF000F08300008C2C000846415400240500209A
:1010000052526141727241612C05002041EA022175
:1010100001437047090441EA006170472DE9F84F28
:1010200081469B460020CBF800008846144648467F
:10103000FFF7DFFE010002BF09F50076F079002816
:1010400017D1B079810758BF072012D5B068211891
:10105000814261D209F5007009F500728168D0689B
:10106000814238BF0146F1600020B17941F0200192
:10107000B171BDE8F28F71691046FFF7ADFA002833
:10108000E8D001281AD010F1010F00F083807061C0
:10109000316901B93061B07941060BD53068B26968
:1010A00090F801020123494600F02AF9002871D185
:1010B00000F0E3F8716900F078F8002867D0670A5B
:1010C00005EB000A3DD0306800F201207A19417822
:1010D0000078914238BF4F1B3B465246414600F0D4
:1010E0000FF9002856D1B069A0EB0A00B84208D227
:1010F00008EB40214FF400724846FFF719F800F062
:10110000BCF87F02B844B0683818B060E41BDBF864
:1011100000107918CBF80010002C9BD0B168C805DE
:1011200021D1326800F038F8B5D119B930690028FA
:10113000A5D1A1E7706A00289DD04846FFF7A1FA23
:101140009DE7B06950450CD0B168F068814208D283
:10115000356895F8010201235246494600F0CAF865
:10116000C0B9C6F818A0B368C3F30803C3F500708C
:101170002746844288BF07463A46414609EB0300AA
:10118000FEF7D6FFB07940F04000B071BAE7022018
:10119000F0716EE70120FBE792F80202431E03EABA
:1011A0005125EDB2002D704701463068FFF704B9B4
:1011B00038B50546FFF71DFE010048D105F500745E
:1011C000A1798A0643D548060DD52068A26990F812
:1011D0000102012300F065F808B1012032BDA079B9
:1011E00000F0BF00A071E169FFF76AFB01002ED19A
:1011F000256AE87A40F02000E872E0682877E16824
:101200000904090E6977E068000CA877E068000E11
:10121000E87728462169FFF713FB00F09BF8A875D3
:101220000104090E020C000E6876E9750020A8740E
:10123000E8742A760121A07900F0DF00A07120680F
:1012400080F804122068BDE83240FFF761B832BD73
:1012500010B50446FFF7ACFF01000DD12046FFF7A3
:10126000C8FD010008D104F50074A06AFEF7E1FF93
:10127000010004BF0021216010BDB07900F0BF0063
:10128000B07170478CA983A8FFF75ABC012081F880
:101290000402704783AD8C99C5F818D003A8FFF7F6
:1012A0009DBB294600F02CB84018491C1CBFB1F169
:1012B000010100F8012DF9D17047000001461E4AD6
:1012C000531802EB81014A68187A516808471A4B93
:1012D00002460020995C002900D0704710B5012417
:1012E0009C5403EB82019C184A68207A1368BDE87D
:1012F0001040184770B500F009F8AC68A04770BD01
:1013000070B500F003F8EC68A04770BD04460A4DC4
:101310002E1905EB84046568307A704738B50346AA
:10132000054CE51804EB83035C68287A236901B057
:10133000BDE83040184700004405002010B5034CBC
:101340000348211D00F025F8207010BD1C05002069
:10135000202E00080020704770B51C4C657A0346AB
:101360000120012D14DC657A00206055607A04EBC1
:1013700080067360607A20440272607A421C627256
:10138000303008702F223A2048708A700020C870D0
:1013900070BD0022E0E70D4B597A0246012000297A
:1013A00000D1704710B51278303AD2B203EB820404
:1013B000616839B100201A4460601072587A411E89
:1013C0005972002010BD0021E5E70000440500200F
:1013D00038B504000ED004F13405287820B9002176
:1013E0002177204600F001FC03202870204600F001
:1013F0000AF808B1012032BD686000212163012094
:101400002870002032BD78B589B0044600207626C9
:1014100003900490059006900790089603A983B066
:101420006846182200F02CFC0EBC206800F034FC4A
:10143000B0B9DFF8B4552860206800F048FC0120FE
:10144000286004F13405204600F062FB18B92046FC
:1014500000F0F4FA28B1012129706A68104368602D
:1014600001200AB070BD2DE9F04F87B005460C464B
:101470009246984600F0AAFE0090264605F13407F1
:101480001CB9786840F00060BFE03878012840F06F
:10149000B9800021796008EB0A02B86A904202D252
:1014A00000F0A3F9B2E0032038702A6800F0A2F936
:1014B000286818BF4FEA4A2A00F03FFC10B100F03C
:1014C000BBF8A4E04FF0FF314FEA482201910292AD
:1014D000902102220391049200210122059106929B
:1014E00001A900F090F9B8F1020F06D30220286399
:1014F0005146286800F037FC05E00120286351467A
:10150000286800F025FCE0BBDDF808A0DDF840B05D
:101510002868416B40F22A32114226D1406B010407
:101520000ED5BAF1000F0BD0AAF1200A4FF008092E
:10153000286800F0C6FB00F076F8B9F10109F7D190
:1015400000F044FE0099401A584502D2BBF1000F4A
:10155000DED1286884630120796841F00041796018
:10156000387000212963032051E0416BCA050ED574
:10157000B8F1020F0BD33969032908D000F021FC20
:1015800028B129688C637A681043786035E0286850
:10159000416B0A0704D58463786840F008000EE0C8
:1015A000416B8A0704D58463786840F0020006E046
:1015B000416B8A062ED58463786840F020007860FD
:1015C000012139700020286320E0BAF1000F27D0F4
:1015D00000F077FB00F027F800F0F8FDA0EB090021
:1015E0005845AAF1040A02D2BBF1000F14D12868B1
:1015F0008463796841F000417960012038700021EE
:10160000296304E0786840F000507860012007B05A
:10161000BDE8F08FDDF800902868416B8A02D4D4D1
:1016200000F0DCF8F3E73070010A7170020CB27060
:10163000000EF070361D704729688C637A6810437D
:1016400078600120387070472DE9F84F88B0064661
:101650000C461546984600F0B9FD0190A24606F1E9
:1016600034071CB9786840F00060B2E0387801288F
:1016700040F0AC800021796008EB0502B86A904226
:1016800002D200F0B2F8A5E003203870326800F012
:10169000B1F8306818BF6D0200F04FFB18B1316827
:1016A000FFF7CBFF97E04FEA482203924FF0FF315C
:1016B0000022029105920692902101220491079244
:1016C00002A9306800F023FBB8F1020F06D32020F6
:1016D00030632946306800F05CFB05E01020306381
:1016E0002946306800F04AFB002849D1039DDDF807
:1016F00048B03068416B40F21A32114234D1406B2D
:1017000041041ED5EDB1203D4FF008091AF8010B38
:10171000009001461AF8010B41EA002100910846A9
:101720001AF8011B40EA014000901AF8011B40EA38
:10173000016000906946306800F0C4FAB9F101090F
:10174000E4D100F043FD0199401A584502D2BBF1A3
:10175000000FCED1306884630120796879603870D9
:1017600000223263032036E0416BCA050DD5B8F183
:10177000020F0AD33969032907D000F022FB20B1F8
:10178000316800F043F8316325E03068416B0A07A7
:1017900004D58463786840F008000EE0416B8A0746
:1017A00004D58463786840F0020006E0416BCA0605
:1017B00009D58463786840F01000786001213970A1
:1017C0000020306306E000F009F804E0786840F09B
:1017D00000507860012009B0BDE8F08F40F23A5126
:1017E00081630120387000207047796841F00071F2
:1017F00079607047DFF84042D1624FF40071386978
:10180000012870476946286800F081BA8C6300217E
:101810007A681043786001203870704730B500F165
:1018200034031A6B920F0A701C6BA40E04F00F04A1
:101830004C701A6B120E02F003028A701A6B120CB3
:10184000CA701A6B120A0A711A6B4A715C6B240D0A
:10185000CC804FF400745A6B120C02F00F020A7223
:101860005A6BD20B02F001024A725A6B920B02F0D1
:1018700001028A725A6B520B02F00102CA725A6B51
:10188000120B02F001020A7300224A731A69002A3D
:1018900040F08D80586B40F6FC7202EA8002986B33
:1018A00042EA90720A610122986BC00E00F00700B4
:1018B0000875986B000E00F007004875986B400D96
:1018C00000F007008875986B800C00F00700C87561
:1018D000986BC00B00F0070008760869401C18627E
:1018E0000D7E05F00705AD1C02FA05F56843186288
:1018F0000D7A05F00F05AA405A62520A50439862C9
:10190000DC62986B800B00F001004876986BC00990
:1019100000F07F00887693F8380000F07F00C876EA
:10192000D86BC00F0877D86B400F00F003004877E2
:10193000D86B800E00F007008877D86B800D00F020
:101940000F00C877D86B400D00F0010081F820002F
:1019500001F1210000210170DA6B120C02F001028A
:1019600042700122D96BC90B01F001018170D96B62
:10197000890B01F00101C170D96B490B01F0010124
:101980000171D96B090B01F001014171D96B890A11
:1019900001F003018171D96B090A01F00301C171E2
:1019A000D96BC1F3460101724272002030BD012A99
:1019B0000DD1586B9A6B000400F47C1040EA124081
:1019C000086108695C62401C8002186297E7006841
:1019D000DFF8641081630120596841F0805159603B
:1019E000187030BD00000000A0003042426C0A6058
:1019F000836C4B60C26C8A60036DCB60426D0A6180
:101A0000836D4B61C26D8A61006EC86100207047B2
:101A100038B504460025216D2068090400F0A0FABD
:101A200018B1A16B0843A06303E000F0BDF8C0F358
:101A30004325284632BD0000FF05400018B58FB091
:101A400004460121ADF80C10206800F048F910B9E7
:101A50004FF0806056E0606C032835D0206800F0BD
:101A600050FA00284ED100F09FF8606700F04CF863
:101A7000A067082100F049F8E0670C2100F045F864
:101A8000C4F88000606C03281ED0206803A900F011
:101A900056FA002836D1606C032815D0BDF80C101A
:101AA00021650904206800F03BFA58BB00F07CF87F
:101AB000606600F029F8A066082100F026F8E066CC
:101AC0000C2100F022F8206700F01EF8000DE06401
:101AD00004A92046FFF7A2FE10B14FF0805011E09C
:101AE000226D20681204002300F080F950B983B001
:101AF000211D6846182200F0C3F80EBC206800F0D3
:101B0000CBF8002010B010BD0421206800F0FCB814
:101B10007CB50546002000900026286800F076F984
:101B20000024002837D1286800F089F968B1AC6436
:101B3000286800F06BF970BBA86C012815D12868E3
:101B4000002100F0B9F9E8B90FE00120A864F6E738
:101B50002868144900F0BBF9A0B9286800F025F8FE
:101B600006460098401CF40F00904FF6FF70009955
:101B7000814211D284B92868002100F09DF9002823
:101B8000E6D076BD4FF0805076BD16F0804018BF8D
:101B900001206864002076BD00998142F5D34FF0A2
:101BA000807076BD000010C12068002100F0ACB844
:101BB0002D4881B0016841F001010160026802F026
:101BC000010200920099426842F0805242604068EF
:101BD00000F08050009000982448016821F0E061F6
:101BE00041F00071016001B0704730B585B0044626
:101BF00001A8102100F0F0FA24681D4DAC4230D14C
:101C00001C48016841F480610160026802F480624E
:101C100000920099426842F010024260416801F06F
:101C2000100100910099426842F0200242604FF496
:101C30008851406800F020000090022200980E4871
:101C4000019102920321049101A900F0C9FA042034
:101C50000221019002910322049201A9074800F099
:101C6000BFFA05B030BD000018100240040001406A
:101C70000080014014100240001001400014014097
:101C80004AB1000011F8013B521E00F8013B1CBF95
:101C900011F8013BF8E770470EB44368DFF8F01421
:101CA000009A0B4001991343029A0B430399134383
:101CB000049A0B43059913430B434360002003B080
:101CC000704737E00968C0F880100020704780B581
:101CD00003210160022000F071FB002002BD0068BA
:101CE00000F00300704730B50A688260C4680D696F
:101CF0004B688A68C9681D431543240B0D4345EAA8
:101D00000434C460002030BD14300858704710B54A
:101D10000A6842624B688362C46A8A68CB6824F0AE
:101D2000F70414430A6949691C4314430C43C46211
:101D3000002010BDD0F88000704718B585B000F0C5
:101D40003CF8102100F030F841F28832102122E1F5
:101D500018B585B000F031F8112100F025F841F2F6
:101D60008832112117E118B585B000F026F812214C
:101D700000F01AF841F2883212210CE118B585B052
:101D800000F01BF8182100F00FF841F288321821FA
:101D900001E118B585B000F010F8192100F004F841
:101DA00041F288321921F6E001914FF4806200215E
:101DB000039104920446694695E7402200910292FD
:101DC000704718B5402285B000F097F80C2100F05C
:101DD00004F8DFF8C0230C21DDE0009001910390AE
:101DE0004FF480620492694620467CE718B585B0BE
:101DF000072100920191402200F078F804466946DC
:101E0000FFF771FF41F288320721C4E018B585B0B1
:101E100004460020009001900290FFF7E0FF00F0E0
:101E20003FF80846411E38B1606B0206F9D5C5205F
:101E3000A063002006B010BD4FF00040FAE718B5CF
:101E40000821402285B00446019102924FF4D570DA
:101E5000002100900391FFF7C3FF00F021F808462E
:101E6000411E60B1606B10F0450FF8D00005F6D44C
:101E7000616B480706D50421A16304200EE04FF0F2
:101E800000400BE0606BC10702D50120A06305E0B4
:101E9000606B410644BF4020A063002006B010BD27
:101EA000DFF8F4221168C9084FF47A73B1FBF3F13B
:101EB00041F288304143704718B585B0FFF77DFF88
:101EC0003721FFF771FF41F28832372163E018B5FF
:101ED000044685B0DFF8C402014300914022292165
:101EE000019100F003F86946204644E00292002187
:101EF00003914FF4806204927047044602920020DE
:101F0000704718B5C02285B0FFF7F7FF0221009097
:101F1000019103904FF4806204926946204607E0E5
:101F200018B585B0C02200910292092100F02AF86C
:101F3000FFF7D9FE204600F0B1F806B010BD30B56D
:101F4000402285B004460D46029200200321FFF78F
:101F500044FF2A460321204600F0E4F805B030BDD6
:101F600018B585B0FFF729FF0D21FFF71DFF41F2DE
:101F700088320D210FE0FFF7B6FE204600F0AEF8E4
:101F800006B010BD01914FF48062002103910492CC
:101F9000044669467047204600F002F806B010BDBE
:101FA00030B57D4C25680346ED084FF47A70B5FBDB
:101FB000F0F042431046421E48B1586B10F0450FF6
:101FC000F8D00005F6D45A6B500701D5F9E0E9E0E6
:101FD000586BC20700D5F1E0C52098631869C0B2FC
:101FE000884201D0012030BD58696D49084201D1B5
:101FF000002030BD02D54FF0007030BD410001D54A
:10200000402030BD810001D5802030BDC10002D507
:102010004FF4807030BD010102D54FF4007030BD27
:10202000410102D54FF4806030BDC10102D54FF4AB
:10203000006030BD010200D5B7E0410200D5B7E035
:10204000810202D54FF4804030BDC10202D54FF469
:10205000004030BD410302D54FF4003030BD810354
:1020600002D54FF4802030BDC10302D54FF40020CB
:1020700030BD010402D54FF4801030BD410402D5BB
:102080004FF4001030BD810402D54FF4800030BD04
:10209000000702D54FF4000030BD8CE03E490A68CD
:1020A000D2084FF47A73B2FBF3F241F288314A431B
:1020B00011464A1E49B1416B11F0450FF8D0090590
:1020C000F6D4426B510701D524E020E0416BCA07EA
:1020D00003D501218163012070471FE02E490A6862
:1020E000D2084FF47A73B2FBF3F241F288314A43DB
:1020F00011464A1E49B1416B11F0450FF8D0090550
:10210000F6D4426B510701D504E000E006E04FF041
:10211000004070470422826304207047C521816318
:102120000020704730B503461B480468E4084FF4AC
:102130007A75B4FBF5F441F2883044432046441EDE
:1021400048B1586B10F0450FF8D00005F6D45C6B21
:10215000600701D535E025E0586BC40700D52DE0B8
:102160001869C0B2884201D0012030BDC5209863F3
:10217000586910F4604F03D1000C1080002030BD6E
:10218000410400D514E0000400D50EE013E0000087
:102190000081FFFF00E1F505180500200000108018
:1021A00008E0FFFD4FF0004030BD4FF4805030BDDF
:1021B0004FF4005030BD4FF4803030BD01209863A3
:1021C00030BD04219963042030BD000001484068FF
:1021D000704700BF0C050020002200F003B900008A
:1021E0002DE9F8470027BE46654A664B4FF00F08B9
:1021F00082460BE0D6683040D06006E094604C68C0
:10220000A402F7D5D0680643D6607F1C0E6836FA64
:1022100007F000F0AD80012000FA07F52E40AE4235
:10222000F3D1486858B301281AD002281FD00328D8
:1022300033D0112817D012281DD0534CA0421CBFF8
:10224000524CA0421BD0524CA0421CBF514CA04249
:1022500015D0514CA0421CBF504CA0420FD01EE0E4
:10226000D1F80CE01BE0C86800F1040E17E0C86864
:1022700000F1080E13E0C86800F10C0E0FE088684A
:1022800010B94FF0040E0AE001284FF0080E14BFF9
:10229000CAF81450CAF8105001E04FF0000EB6F51D
:1022A000807F03D250464FEA870C05E0A7F108046F
:1022B0000AF104004FEA840C046808FA0CF5AC43F8
:1022C0000EFA0CF52C4304604868C0009DD51868D0
:1022D000DFF8CCC040F0010018601C6804F0010475
:1022E0000094BC000098B8085CF8205004F00C047E
:1022F00008FA04F925EA09092A4DAA4508BF00256C
:1023000018D0294DAA4508BF012513D0274DAA454D
:1023100008BF02250ED0264DAA4508BF032509D0C7
:10232000244DAA4508BF042504D0234DAA450CBF5F
:102330000525062505FA04F444EA09044CF8204072
:10234000F0434C68E40314684CBF34430440146009
:102350004C68A40354684CBF3443044054604C6838
:102360009568E4024CBF46EA050400EA050445E727
:10237000BDE8F1878068084018BF0120C0B27047EF
:10238000000401401810024000001110000012105B
:102390000000211000002210000031100000321057
:1023A0000800014000080140000C014000100140FD
:1023B0000014014000180140001C014038B50446DB
:1023C000FFF704FF14F1010F054602D00449087815
:1023D0000419FFF7FBFE401BA042FAD331BD00BF3A
:1023E0000C05002000B500BF130096469446103936
:1023F00028BFA0E80C50FAD85FEA417C28BF0CC087
:1024000048BF40F8042BC90728BF20F8022B48BF5B
:1024100000F8012B00BD00002DE9F843040016D0A0
:102420002078DFF85864C10713D5706800F00C00FD
:10243000042807D0706800F00C00082840D17068AC
:10244000C1033DD53068810303D56068002800F0E2
:10245000F4802078DFF83474810719D5706810F0A3
:102460000C0F07D0706800F00C00082860D170686D
:10247000C1035DD43068810703D52069012840F08D
:10248000DC803168606921F0F80141EAC001316007
:102490002178080770D5A069DFF8F413002865D00B
:1024A00001220A60FFF792FE0546706A810700F17B
:1024B000C680FFF78BFE401B0228F6D9032035E1CA
:1024C0006068B0F5803F04D1306840F480303060FF
:1024D00014E008B930680AE0B0F5A02F306806D1E2
:1024E00040F480203060316841F4803105E020F410
:1024F00080303060316821F480213160606858B1EB
:10250000FFF764FE054630688103A2D4FFF75EFE44
:10251000401B6528F7D3D1E7FFF758FE0546306822
:10252000810396D5FFF752FE401B6528F7D3C5E718
:10253000206970B101213960FFF748FE0546306817
:10254000810700F1B680FFF741FE401B0228F6D953
:10255000B4E73860FFF73AFE05463168880797D53B
:10256000FFF734FE401B0228F7D9A7E70860FFF702
:102570002DFE0546706A810770D5FFF727FE401BC8
:102580000228F7D99AE708B9306A09E00528306AC5
:1025900006D140F004003062306A40F0010005E0EE
:1025A000400840003062306A20F00400306241F29E
:1025B0008938E06868B1FFF709FE8146306A810713
:1025C00000F18480FFF702FEA0EB09004045F5D33F
:1025D00074E7FFF7FBFD8146306A810776D5FFF788
:1025E000F5FDA0EB09004045F6D367E7FFF7EEFDE8
:1025F000401B02287BD961E7FFF7E8FD001B02289A
:1026000040F28F805AE700F093F804463068810169
:1026100040F18B80FFF7DAFD001B0228F6D94DE769
:1026200001280AD07068226A00F48031914202BF0A
:1026300000F47010616A884277D0012076E0DFF8FC
:1026400040020168C9084FF47A72B1FBF2F20092BD
:1026500000BF0098411E00280091F9D12078410761
:1026600039D5F0690025C10009D4F06940F08050E7
:10267000F0610125F06900F0805000900098DFF8CB
:102680001482D8F80000C1051BD4D8F8000040F42B
:102690008070C8F80000FFF799FD8146D8F8000067
:1026A000C1050ED4FFF792FDA0EB09006528F5D314
:1026B00004E73068616920F0F80040EAC10030604A
:1026C000E6E6E06801287FF45EAF65E71DB1F069DA
:1026D00020F08050F061E06938B3716801F00C01BE
:1026E00008299DD002288ED100F022F805463068D6
:1026F00081013FF57BAF206AB0F5803F05D171685D
:10270000A06821F40031014371607268206A616A37
:1027100022F4741202430A437260012000F009F8A7
:102720000446306881017FF567AF0020BDE8F28381
:1027300000203866FFF74ABD2DE9F04104008846C5
:1027400072D0554E00F077F802D200F06FF86BD1DE
:1027500020684A4D810712D5400703D5696841F4C6
:10276000E06169602078010703D5686840F4605033
:1027700068606968A06821F0F00101436960217810
:10278000C80749D56068012802D129688A0303E097
:102790000228296802D18A0102D445E08A0743D57C
:1027A0006968890840EA81006860FFF70FFD074605
:1027B0006868616800F00C00B0EB810F2CD0FFF767
:1027C00005FDC01B41F289318842F1D3032021E08D
:1027D0002078410705D56A68E06822F4E062024388
:1027E0006A602178080706D56968206921F460517C
:1027F00041EAC001696000F023F86A682749204B6C
:10280000C2F30312895CC84018601F48006800F0DA
:1028100055F80020BDE8F081306800F007008045E1
:10282000D6D200F003F8D3D00120F3E73168C9080D
:1028300048EAC1013160306800F007004045704748
:10284000174910480A6802F00C03082B00D07047A3
:1028500010B500BF14A4C2F38343D203E35C08D5D0
:102860000968584314A3C1F340415A5CB0FBF2F02D
:1028700010BD18460B49484310BD0000001002402F
:102880001805002000127A001405002000004242C2
:10289000800442420070004000200240582D000891
:1028A0000410024000093D00020304050607080960
:1028B0000A0B0C0D0E0F10100102000038B50D4D63
:1028C0000D4B2A7804464FF47A711868B1FBF2F286
:1028D000B0FBF2F000F049F850B9102C08D20022F9
:1028E00021464FF0FF3000F023F8AC60002032BDED
:1028F000012032BD0C05002018050020090102004E
:1029000002D4244881547047234B02F00F021A442A
:1029100002F8041C7047214B19684FF6FF020002B1
:10292000114000F4E06008431D49084318607047F7
:1029300038B51A4B1C68C4F30223C3F10704052CF5
:1029400028BF04241D1D072D34BF0023DB1E0125D5
:1029500005FA04F4641E2140994005FA03F35B1E56
:102960001A401143BDE83440C8E710B5401EB0F12D
:10297000807F01D3012010BD0A4C60600F214FF011
:10298000FF30FFF7BBFF0021A1600720206000207F
:1029900010BD000000E400E018ED00E00CED00E0E8
:1029A0000000FA0510E000E078B585B000F09AF874
:1029B00000F066F801A81021FFF70EFC2B482C4C04
:1029C000016841F010010160026802F010020092FB
:1029D0000099026842F004020260036803F00403F5
:1029E00000930099026842F02002026040210068D2
:1029F00000F020000090002200981E4801910292F1
:102A00000221039101A9FFF7EBFB1B486060002145
:102A10000120A160E16021616161A161E061FEF7D7
:102A20008DFC00F071F800B3144D0022294604F12A
:102A30008800FEF7F7F9207004F52E765FF00A02A1
:102A400025A13046FEF71CFA207004F2E44321224F
:102A500004F59D613046FEF7E1FA20703046FEF73E
:102A6000F7FB20702846FEF7AEFCFEE71810024088
:102A700000000020001001400080014020050020DF
:102A800000B58FB005A82821FFF7A6FB68461421E2
:102A9000FFF7A2FB4FF480310022069107920D91BF
:102AA00001200590099002224FF4E0110C920E9142
:102AB00005A8FFF7B1FC022101910F204FF48061BE
:102AC0000090002203910292049202216846FFF7CF
:102AD00033FE0FB000BD000053544D33322E545816
:102AE0005400000080B50748016841F01001016002
:102AF0000320FFF710FF0020FFF7E0FEFFF758F874
:102B0000002002BD0020024010B540210348FFF71D
:102B100031FC012400B10024204610BD001001400A
:102B200010B5314C0120207000F064F805E010B5BC
:102B30002D4C0120207000F06BF818B9207800F0BF
:102B4000FE002070207810BD38B500F023F800F0AA
:102B50006BF8012448B900F05BF828B12846451EFF
:102B60000028F8D1012032BD0024204632BD38B5FE
:102B700000F010F800F068F8012448B900F048F8B7
:102B800028B12846451E0028F8D1012032BD002476
:102B9000204632BD084611461A46144B144D704764
:102BA00010B5114888B014460278D30748BF0320F7
:102BB00018D4032915D8DFE801F01202070D684682
:102BC00000F052F8069809E0684600F04DF80798C2
:102BD000208004E0684600F047F807982060002055
:102BE00000E0042008B010BD5005002000E1F5050C
:102BF000A086010080B500F03DF8012801D0012039
:102C000002BDBDE802400148FEF7E2BB040000201F
:102C100080B50448FEF7FCFE042801D1002002BD67
:102C2000012002BD040000201CB5009300241346BF
:102C30000A4601460348FEF716FC00B1012420466F
:102C400016BD00BF040000201CB5009300241346ED
:102C50000A4601460348FEF7F7FC00B1012420466E
:102C600016BD00BF0400002001460148FEF7BEBEAD
:102C70000400002080B501208DF80000FFF744FF1C
:102C800008B98DF800009DF8000002BD809A90B64A
:102C90008EB78F80D2D3D4D8D7DE8E8F909292E227
:102CA00099E3EAEB59999A9D9C9D9E9FB5D6E0E9E0
:102CB000A5A5A6A7A8A9AAABAC21AEAFB0B1B2B3E7
:102CC000B4B5B6B7B8B9BABBBCBDBEBFC0C1C2C34C
:102CD000C4C5C7C7C8C9CACBCCCDCECFD0D1D2D33B
:102CE000D4D5D6D7D8D9DADBDCDDDEDFE0E1E2E32C
:102CF000E5E5E6E7E7E9EAEBEDEDEEEFF0F1F2F31B
:102D0000F4F5F6F7F8F9FAFBFCFDFEFF10B50E4AF4
:102D10000E49106840F00100106053680C480B40E9
:102D20005360146804401460116821F4802111601C
:102D30004FF41F01506820F4FE00506091604FF086
:102D40000060044A106010BD001002400000FFF84F
:102D5000FFFFF6FE08ED00E00000000000000000AC
:102D6000010203040607080930B5016884684218A7
:102D7000416802EB5103C9070BD54C4409E012F935
:102D8000011B12F8015B002904F8015B05D5491C01
:102D9000F9D19A42F3D10C3030BD491EF1D5F8E794
:102DA00010B5074979441831064C7C44163404E0C8
:102DB0000A68081D114488470146A142F8D110BD98
:102DC0000800000014000000A1FFFFFF98010000B0
:102DD0008C0000000000002000F00DF8002801D059
:102DE000FFF7DEFFAFF300800020AFF30080FFF7B6
:102DF000DBFD00F002F80120704700F001B8000090
:102E00000746384600F002F8FBE7000080B5AFF354
:102E10000080024A11001820ABBEFBE7260002002A
:102E2000212B00082F2B0008492B00086F2B0008CE
:102E3000A12B00087047FEE7FEE7FEE7FEE77047BC
:102E40007047704700F000B802494A680878821855
:102E50004A6070470C050020014880470148004740
:102E60000D2D0008692E0008AFF30080AFF300803D
:102E7000FFF7B2FFFFF7FEBFFFF7FEBFFFF7FEBF92
:102E8000FFF7FEBFFFF7FEBFFFF7FEBFFFF7FEBF76
:102E9000FFF7FEBFFFF7FEBFFFF7FEBFFFF7FEBF66
:102EA000FFF7FEBFFFF7FEBFFFF7FEBFFFF7FEBF56
:102EB000FFF7FEBFFFF7FEBFFFF7FEBFFFF7FEBF46
:102EC000FFF7FEBFFFF7FEBFFFF7FEBFFFF7FEBF36
:102ED000FFF7FEBFFFF7FEBFFFF7FEBFFFF7FEBF26
:102EE000FFF7FEBFFFF7FEBFFFF7FEBFFFF7FEBF16
:102EF000FFF7FEBFFFF7FEBFFFF7FEBFFFF7FEBF06
:102F0000FFF7FEBFFFF7FEBFFFF7FEBFFFF7FEBFF5
:102F1000FFF7FEBFFFF7FEBFFFF7FEBFFFF7FEBFE5
:102F2000FFF7FEBFFFF7FEBFFFF7FEBFFFF7FEBFD5
:102F3000FFF7FEBFFFF7FEBFFFF7FEBFFFF7FEBFC5
:102F4000FFF7FEBFFFF7FEBFFFF7FEBFFFF7FEBFB5
:102F5000FFF7FEBFFFF7FEBFFFF7FEBFFFF7FEBFA5
:102F6000FFF7FEBF810081008100810081008100A8
:102F70008100810081008F001F546869732069738C
:102F80002053544D333220776F726B696E67207710
:102F9000697468204661744673FC000001F9000002
:0A2FA00010FC000124F4CB00000136
:0400000508002E6958
:00000001FF
